:020000040800F2
:1000000000500020415400080D1000080F10000897
:10001000111000081310000815100008000000005F
:1000200000000000000000000000000017100008A1
:1000300019100008000000001B1000081D10000827
:10004000895400088954000889540008895400081C
:10005000895400088954000889540008895400080C
:1000600089540008895400088954000889540008FC
:1000700089540008895400088954000889540008EC
:1000800089540008895400088954000889540008DC
:100090002510000889540008895400088954000874
:1000A00089540008895400088954000889540008BC
:1000B00089540008895400088954000889540008AC
:1000C000895400088954000889540008895400089C
:1000D000895400088954000889540008895400088C
:1000E0008954000889540008895400080000000061
:1000F0000000000000000000000000000000000000
:0C01000000000000000000005FF808F1A3
:1001100010B5054C237833B9044B13B10448AFF341
:1001200000800123237010BDE001002000000000CA
:10013000F45D000808B5034B1BB103490348AFF356
:10014000008008BD00000000E4010020F45D00080C
:10015000034613F8012B002AFBD1181A0138704707
:1001600081F0004102E000BF83F0004330B54FEA68
:1001700041044FEA430594EA050F08BF90EA020FD5
:100180001FBF54EA000C55EA020C7FEA645C7FEA68
:10019000655C00F0E2804FEA5454D4EB5555B8BF8B
:1001A0006D420CDD2C4480EA020281EA030382EAFC
:1001B000000083EA010180EA020281EA0303362D8E
:1001C00088BF30BD11F0004F4FEA01314FF4801C61
:1001D0004CEA113102D0404261EB410113F0004F73
:1001E0004FEA03334CEA133302D0524263EB43032A
:1001F00094EA050F00F0A780A4F10104D5F1200EC8
:100200000DDB02FA0EFC22FA05F2801841F1000122
:1002100003FA0EF2801843FA05F359410EE0A5F1F6
:1002200020050EF1200E012A03FA0EFC28BF4CF027
:10023000020C43FA05F3C01851EBE37101F00045DD
:1002400007D54FF0000EDCF1000C7EEB00006EEBEA
:100250000101B1F5801F1BD3B1F5001F0CD3490874
:100260005FEA30004FEA3C0C04F101044FEA4452CB
:1002700012F5800F80F09A80BCF1004F08BF5FEA52
:10028000500C50F1000041EB045141EA050130BD32
:100290005FEA4C0C404141EB0101013C28BFB1F544
:1002A000801FE9D291F0000F04BF01460020B1FA8F
:1002B00081F308BF2033A3F10B03B3F120020CDA62
:1002C0000C3208DD02F1140CC2F10C0201FA0CF040
:1002D00021FA02F10CE002F11402D8BFC2F1200CA5
:1002E00001FA02F120FA0CFCDCBF41EA0C0190405B
:1002F000E41AA2BF01EB0451294330BD6FEA0404A4
:100300001F3C1CDA0C340EDC04F11404C4F120028E
:1003100020FA04F001FA02F340EA030021FA04F3A0
:1003200045EA030130BDC4F10C04C4F1200220FAF7
:1003300002F001FA04F340EA0300294630BD21FA35
:1003400004F0294630BD94F0000F83F4801306BFFB
:1003500081F480110134013D4EE77FEA645C18BFEF
:100360007FEA655C29D094EA050F08BF90EA020F86
:1003700005D054EA000C04BF1946104630BD91EA7E
:10038000030F1EBF0021002030BD5FEA545C05D181
:100390004000494128BF41F0004130BD14F58004C0
:1003A0003CBF01F5801130BD01F0004545F0FE4134
:1003B00041F470014FF0000030BD7FEA645C1ABF69
:1003C000194610467FEA655C1CBF0B46024650EAA0
:1003D000013406BF52EA033591EA030F41F40021CC
:1003E00030BD00BF90F0000F04BF0021704730B552
:1003F0004FF4806404F132044FF000054FF0000127
:1004000050E700BF90F0000F04BF0021704730B5E7
:100410004FF4806404F1320410F0004548BF4042BC
:100420004FF000013EE700BF42004FEAE2014FEA11
:1004300031014FEA02701FBF12F07F4393F07F4FEC
:1004400081F06051704732F07F4208BF704793F0EF
:100450007F4F04BF41F40021704730B54FF4607402
:1004600001F0004521F000411CE700BF50EA010205
:1004700008BF704730B54FF000050AE050EA0102AE
:1004800008BF704730B511F0004502D5404261EB1E
:1004900041014FF4806404F132045FEA915C3FF45F
:1004A000D8AE4FF003025FEADC0C18BF03325FEAFC
:1004B000DC0C18BF033202EBDC02C2F1200300FAAD
:1004C00003FC20FA02F001FA03FE40EA0E0021FAD2
:1004D00002F11444BDE600BF70B54FF0FF0C4CF4C0
:1004E000E06C1CEA11541DBF1CEA135594EA0C0F72
:1004F00095EA0C0F00F0DEF82C4481EA030621EAAD
:100500004C5123EA4C5350EA013518BF52EA0335E7
:1005100041F4801143F4801338D0A0FB02CE4FF099
:100520000005E1FB02E506F00042E0FB03E54FF0C9
:100530000006E1FB03569CF0000F18BF4EF0010EC1
:10054000A4F1FF04B6F5007F64F5407404D25FEABD
:100550004E0E6D4146EB060642EAC62141EA555170
:100560004FEAC52040EA5E504FEACE2EB4F1FD0CB2
:1005700088BFBCF5E06F1ED8BEF1004F08BF5FEA30
:10058000500E50F1000041EB045170BD06F00046E2
:1005900046EA010140EA020081EA0301B4EB5C048F
:1005A000C2BFD4EB0C0541EA045170BD41F4801187
:1005B0004FF0000E013C00F3AB8014F1360FDEBFAC
:1005C000002001F0004170BDC4F10004203C35DA88
:1005D0000C341BDC04F11404C4F1200500FA05F30B
:1005E00020FA04F001FA05F240EA020001F00042AC
:1005F00021F0004110EBD37021FA04F642EB060122
:100600005EEA430E08BF20EAD37070BDC4F10C044B
:10061000C4F1200500FA04F320FA05F001FA04F20F
:1006200040EA020001F0004110EBD37041F10001FB
:100630005EEA430E08BF20EAD37070BDC4F1200506
:1006400000FA05F24EEA020E20FA04F301FA05F26E
:1006500043EA020321FA04F001F0004121FA04F216
:1006600020EA020000EBD3705EEA430E08BF20EAE6
:10067000D37070BD94F0000F0FD101F00046400020
:1006800041EB010111F4801F08BF013CF7D041EAA2
:10069000060195F0000F18BF704703F000465200A6
:1006A00043EB030313F4801F08BF013DF7D043EA77
:1006B0000603704794EA0C0F0CEA135518BF95EA2D
:1006C0000C0F0CD050EA410618BF52EA4306D1D1B4
:1006D00081EA030101F000414FF0000070BD50EAD3
:1006E000410606BF1046194652EA430619D094EA5D
:1006F0000C0F02D150EA013613D195EA0C0F05D147
:1007000052EA03361CBF104619460AD181EA03019A
:1007100001F0004141F0FE4141F470014FF0000052
:1007200070BD41F0FE4141F4780170BD70B54FF0ED
:10073000FF0C4CF4E06C1CEA11541DBF1CEA13556D
:1007400094EA0C0F95EA0C0F00F0A7F8A4EB05044F
:1007500081EA030E52EA03354FEA013100F0888046
:100760004FEA03334FF0805545EA131343EA12630F
:100770004FEA022245EA111545EA10654FEA0026C4
:100780000EF000419D4208BF964244F1FD0404F57D
:10079000407402D25B084FEA3202B61A65EB0305D9
:1007A0005B084FEA32024FF480104FF4002CB6EB96
:1007B000020E75EB030E22BFB61A754640EA0C0016
:1007C0005B084FEA3202B6EB020E75EB030E22BF56
:1007D000B61A754640EA5C005B084FEA3202B6EB97
:1007E000020E75EB030E22BFB61A754640EA9C0056
:1007F0005B084FEA3202B6EB020E75EB030E22BF26
:10080000B61A754640EADC0055EA060E18D04FEAE3
:10081000051545EA16754FEA06164FEAC30343EA83
:1008200052734FEAC2025FEA1C1CC0D111F4801F50
:100830000BD141EA00014FF000004FF0004CB6E749
:1008400011F4801F04BF01430020B4F1FD0C88BFE8
:10085000BCF5E06F3FF6AFAEB5EB030C04BFB6EBF3
:10086000020C5FEA500C50F1000041EB045170BDE6
:100870000EF0004E4EEA113114EB5C04C2BFD4EB13
:100880000C0541EA045170BD41F480114FF0000E97
:10089000013C90E645EA060E8DE60CEA135594EA13
:1008A0000C0F08BF95EA0C0F3FF43BAF94EA0C0F16
:1008B0000AD150EA01347FF434AF95EA0C0F7FF48B
:1008C00025AF104619462CE795EA0C0F06D152EADF
:1008D00003353FF4FDAE1046194622E750EA4106C3
:1008E00018BF52EA43067FF4C5AE50EA41047FF4D4
:1008F0000DAF52EA43057FF4EBAE12E74FEA410237
:10090000B2F1E04324BFB3F5001CDCF1FE5C0DD96D
:1009100001F0004C4FEAC0024CEA5070B2F1004FB7
:1009200040EB830008BF20F00100704711F0804FBA
:1009300021D113F13872BCBF01F00040704741F47F
:1009400080114FEA5252C2F11802C2F1200C10FA83
:100950000CF320FA02F018BF40F001004FEAC12367
:100960004FEAD32303FA0CFC40EA0C0023FA02F30B
:100970004FEA4303CCE77FEA625307D150EA0133E1
:100980001EBF4FF0FE4040F44000704701F00040B1
:1009900040F0FE4040F40000704700BF80F000408F
:1009A00002E000BF81F0004142001FBF5FEA410347
:1009B00092EA030F7FEA226C7FEA236C6AD04FEA47
:1009C0001262D2EB1363C1BFD2184140484041408C
:1009D000B8BF5B42192B88BF704710F0004F40F43E
:1009E000000020F07F4018BF404211F0004F41F45A
:1009F000000121F07F4118BF494292EA030F3FD026
:100A0000A2F1010241FA03FC10EB0C00C3F1200338
:100A100001FA03F100F0004302D5494260EB4000C7
:100A2000B0F5000F13D3B0F1807F06D340084FEA32
:100A3000310102F10102FE2A51D2B1F1004F40EB27
:100A4000C25008BF20F0010040EA0300704749008F
:100A500040EB0000013A28BFB0F5000FEDD2B0FA2C
:100A600080FCACF1080CB2EB0C0200FA0CF0AABF4F
:100A700000EBC25052421843BCBFD04018437047ED
:100A800092F0000F81F4000106BF80F400000132F3
:100A9000013BB5E74FEA41037FEA226C18BF7FEACA
:100AA000236C21D092EA030F04D092F0000F08BF0C
:100AB0000846704790EA010F1CBF0020704712F0F3
:100AC0007F4F04D1400028BF40F00040704712F132
:100AD00000723CBF00F50000704700F0004343F097
:100AE000FE4040F4000070477FEA226216BF0846CD
:100AF0007FEA23630146420206BF5FEA412390EA90
:100B0000010F40F4800070474FF0000304E000BF85
:100B100010F0004348BF40425FEA000C08BF704736
:100B200043F0964301464FF000001CE050EA0102FA
:100B300008BF70474FF000030AE000BF50EA01020F
:100B400008BF704711F0004302D5404261EB4101FC
:100B50005FEA010C02BF84460146002043F0B64321
:100B600008BFA3F18053A3F50003BCFA8CF2083A46
:100B7000A3EBC25310DB01FA02FC634400FA02FC4F
:100B8000C2F12002BCF1004F20FA02F243EB020056
:100B900008BF20F00100704702F1200201FA02FCB8
:100BA000C2F1200250EA4C0021FA02F243EB0200AB
:100BB00008BF20EADC7070474FF0FF0C1CEAD052EF
:100BC0001EBF1CEAD15392EA0C0F93EA0C0F6FD0B0
:100BD0001A4480EA010C400218BF5FEA41211ED08E
:100BE0004FF0006343EA501043EA5111A0FB01317A
:100BF0000CF00040B1F5000F3EBF490041EAD3714F
:100C00005B0040EA010062F17F02FD2A1DD8B3F1CA
:100C1000004F40EBC25008BF20F00100704790F039
:100C2000000F0CF0004C08BF49024CEA502040EA8B
:100C300051207F3AC2BFD2F1FF0340EAC250704751
:100C400040F400004FF00003013A5DDC12F1190F8F
:100C5000DCBF00F000407047C2F10002410021FA01
:100C600002F1C2F1200200FA02FC5FEA310040F119
:100C7000000053EA4C0308BF20EADC70704792F092
:100C8000000F00F0004C02BF400010F4000F013ACA
:100C9000F9D040EA0C0093F0000F01F0004C02BFC5
:100CA000490011F4000F013BF9D041EA0C018FE734
:100CB0000CEAD15392EA0C0F18BF93EA0C0F0AD03A
:100CC00030F0004C18BF31F0004CD8D180EA010060
:100CD00000F00040704790F0000F17BF90F0004FF9
:100CE000084691F0000F91F0004F14D092EA0C0FDB
:100CF00001D142020FD193EA0C0F03D14B0218BF6E
:100D0000084608D180EA010000F0004040F0FE40B3
:100D100040F40000704740F0FE4040F4400070474F
:100D20004FF0FF0C1CEAD0521EBF1CEAD15392EACE
:100D30000C0F93EA0C0F69D0A2EB030280EA010CBE
:100D400049024FEA402037D04FF0805343EA111157
:100D500043EA10130CF000408B4238BF5B0042F1B5
:100D60007D024FF4000C8B4224BF5B1A40EA0C005A
:100D7000B3EB510F24BFA3EB510340EA5C00B3EB8C
:100D8000910F24BFA3EB910340EA9C00B3EBD10F7A
:100D900024BFA3EBD10340EADC001B0118BF5FEACC
:100DA0001C1CE0D1FD2A3FF650AF8B4240EBC250F5
:100DB00008BF20F0010070470CF0004C4CEA5020B6
:100DC0007F32C2BFD2F1FF0340EAC250704740F405
:100DD00000004FF00003013A37E792F0000F00F0F7
:100DE000004C02BF400010F4000F013AF9D040EA75
:100DF0000C0093F0000F01F0004C02BF490011F409
:100E0000000F013BF9D041EA0C0195E70CEAD15300
:100E100092EA0C0F08D142027FF47DAF93EA0C0FE7
:100E20007FF470AF084676E793EA0C0F04D14B02CB
:100E30003FF44CAF08466EE730F0004C18BF31F07D
:100E4000004CCAD130F000427FF45CAF31F0004377
:100E50007FF43CAF5FE700BF4FEA4002B2F1FE4FC4
:100E60000FD34FF09E03B3EB12620DD94FEA00236C
:100E700043F0004310F0004F23FA02F018BF404245
:100E800070474FF00000704712F1610F01D142022C
:100E900005D110F0004008BF6FF0004070474FF0E0
:100EA0000000704782B00A4B9A6942F020029A61B2
:100EB0009A6902F020020092009A9A6942F00402B4
:100EC0009A619B6903F004030193019B02B0704790
:100ED0000010024072B6FEE700B585B00023019312
:100EE000029303930F48104A0260836003730375F3
:100EF0004FF46022C26143600123036103F0FAFAF8
:100F000060B90023019301220292039301A90548CD
:100F100003F06AF920B905B05DF804FBFFF7DAFFCA
:100F2000FFF7D8FFFC0100200024014000B595B078
:100F3000282200210DEB020004F0CCFA00230593D7
:100F400006930793089309930193029303930493E1
:100F500001220A924FF480330B930E9202221192D7
:100F600012934FF4801313930AA800F029F9E8B9FB
:100F70000F23059302230693002307934FF4806207
:100F800008920993012105A800F05AFB80B91223A9
:100F900001934FF4804303934FF48003049301A81B
:100FA00000F01AFC30B915B05DF804FBFFF792FFB2
:100FB000FFF790FFFFF78EFF00B58FB000F0B2F89B
:100FC000FFF7B4FFFFF76EFFFFF786FF00F090FE1C
:100FD00004F014F80B4803F0FFFF04F031F80AA8FE
:100FE00004F024F89DF831309DF830200649684619
:100FF00004F078FA6846FFF7ABF80146684600F05F
:1010000061FFEAE7FC0100200C5E0008FEE7FEE756
:10101000FEE7FEE7FEE770477047704708B500F04F
:1010200093F808BD08B5024801F0F5FD08BD00BF02
:10103000C40E002082B00E4B9A6942F001029A6100
:101040009A6902F001020092009ADA6942F0805235
:10105000DA61DB6903F080530193019B054A536811
:1010600023F0E06343F00073536002B0704700BFA9
:10107000001002400000014000B587B00023029339
:101080000393049305930268114B9A4202D007B070
:101090005DF804FB03F56C439A6942F400729A61AF
:1010A0009A6902F400720092009A9A6942F004026E
:1010B0009A619B6903F004030193019B012302934E
:1010C0000323039302A9034800F092FCDFE700BF6B
:1010D000002401400008014010B504460E4B18786A
:1010E0004FF47A73B3FBF0F30C4A1068B0FBF3F0E3
:1010F00000F0E8FD68B90F2C01D901200AE00022B8
:1011000021464FF0FF3000F097FD054B1C6000209A
:1011100000E0012010BD00BF0000002008000020FA
:101120000400002008B5074A136843F01003136059
:10113000032000F06FFD0F20FFF7CEFFFFF77AFFCF
:10114000002008BD00200240034A1168034B1B78B1
:101150000B441360704700BF2C02002000000020E9
:10116000014B1868704700BF2C02002038B50446B8
:10117000FFF7F6FF0546B4F1FF3F02D0044B1B78A2
:101180001C44FFF7EDFF401BA042FAD338BD00BF5F
:101190000000002082B0084B1B68084AA2FB032312
:1011A0005B0A00FB03F3019300BF019B5A1E0192EF
:1011B000002BF9D102B0704708000020D34D621017
:1011C000002800F0F18170B582B00446036813F086
:1011D000010F2CD0994B5B6803F00C03042B1DD03E
:1011E000964B5B6803F00C03082B12D06368B3F5D1
:1011F000803F41D0002B55D103F1804303F50433E8
:101200001A6822F480321A601A6822F480221A6066
:1012100037E08A4B5B6813F4803FE7D0874B1B684D
:1012200013F4003F03D06368002B00F0BF812368F4
:1012300013F0020F75D0814B5B6813F00C0F5FD079
:101240007E4B5B6803F00C03082B54D02369002B02
:1012500000F08A807A4B01221A60FFF781FF054671
:10126000764B1B6813F0020F75D1FFF779FF401B17
:101270000228F5D903209EE1704A136843F48033B5
:101280001360636843B3FFF76BFF05466B4B1B6846
:1012900013F4003FCBD1FFF763FF401B6428F5D95F
:1012A000032088E1B3F5A02F09D0644B1A6822F41B
:1012B00080321A601A6822F480221A60E1E703F192
:1012C0008043A3F53C331A6842F480221A601A68FE
:1012D00042F480321A60D4E7FFF742FF0546574BCD
:1012E0001B6813F4003FA2D0FFF73AFF401B6428AD
:1012F000F5D903205FE1514B5B6813F4803FA5D122
:101300004E4B1B6813F0020F03D02369012B40F0F2
:101310004F814A4A136823F0F803616943EAC10325
:101320001360236813F0080F33D0A369002B5CD03F
:10133000434B0122C3F88024FFF712FF05463F4BC1
:101340005B6A13F0020F21D1FFF70AFF401B02284E
:10135000F5D903202FE1394A136823F0F8036169B6
:1013600043EAC1031360DCE7354B00221A60FFF744
:10137000F7FE0546314B1B6813F0020FD1D0FFF783
:10138000EFFE401B0228F5D9032014E10120FFF7EE
:1013900001FF236813F0040F00F09680274BDB69F0
:1013A00013F0805F34D1254BDA6942F08052DA6164
:1013B000DB6903F080530193019B0125214B1B68DE
:1013C00013F4807F26D0E368012B3DD0002B53D14E
:1013D00003F1804303F504331A6A22F001021A6212
:1013E0001A6A22F004021A6233E0154B0022C3F895
:1013F0008024FFF7B5FE0546104B5B6A13F0020F21
:10140000C7D0FFF7ADFE401B0228F5D90320D2E07C
:101410000025D3E70B4A136843F480731360FFF78A
:101420009FFE0646074B1B6813F4807FCBD1FFF766
:1014300097FE801B6428F5D90320BCE00010024011
:1014400000004242007000405F4A136A43F001030B
:101450001362E36833B3FFF783FE06465A4B1B6AF9
:1014600013F0020F2FD1FFF77BFE801B41F2883370
:101470009842F3D903209EE0052B09D0524B1A6AFB
:1014800022F001021A621A6A22F004021A62E0E7EC
:101490004D4B1A6A42F004021A621A6A42F00102C3
:1014A0001A62D6E7FFF75CFE0646474B1B6A13F04D
:1014B000020F08D0FFF754FE801B41F28833984298
:1014C000F3D9032077E0E5B9E369002B72D03E4AF7
:1014D000526802F00C02082A56D0022B17D03B4B60
:1014E00000221A66FFF73CFE0446374B1B6813F0D8
:1014F000007F47D0FFF734FE001B0228F5D90320F8
:1015000059E0314AD36923F08053D361DCE72F4B94
:1015100000221A66FFF724FE05462B4B1B6813F0CA
:10152000007F06D0FFF71CFE401B0228F5D90320E0
:1015300041E0236AB3F5803F1AD023494B6823F476
:101540007413226A606A024313434B601F4B0122EB
:101550001A66FFF705FE04461B4B1B6813F0007F5D
:101560000ED1FFF7FDFD001B0228F5D9032022E074
:10157000154A536823F40033A1680B435360DCE73A
:10158000002018E0002016E0012B16D00E4B5B68FF
:1015900003F48031226A914211D103F47013626A1C
:1015A00093420ED1002006E001207047012002E0A6
:1015B000012000E0002002B070BD0120FBE7012007
:1015C000F9E70120F7E700BF0010024000004242A7
:1015D00086B0174B0FCB0DF1180C0CE90F0040F241
:1015E0000123ADF80430134B5B6803F00C02082AAA
:1015F00002D0114806B07047C3F3834218326A44E0
:1016000012F8100C13F4803F0DD00A4B5B68C3F343
:10161000404318336B4413F8143C074A02FB00F0B4
:10162000B0FBF3F0E6E7054B03FB00F0E2E700BF99
:10163000245E00080010024000127A0000093D00FC
:10164000002800F0A08070B50D460446524B1B6880
:1016500003F007038B420BD24F4A136823F00703B2
:101660000B431360136803F007038B4240F08D8037
:10167000236813F0020F17D013F0040F04D0474A69
:10168000536843F4E0635360236813F0080F04D0F9
:10169000424A536843F460535360404A536823F00E
:1016A000F003A1680B435360236813F0010F31D09E
:1016B0006368012B20D0022B25D0384A126812F023
:1016C000020F64D035494A6822F0030213434B608D
:1016D000FFF746FD0646314B5B6803F00C0362687A
:1016E000B3EB820F16D0FFF73BFD801B41F288332E
:1016F0009842F0D9032045E0284A126812F4003FCE
:10170000E0D101203EE0254A126812F0007FD9D1D5
:10171000012037E0204B1B6803F00703AB420AD9D6
:101720001D4A136823F007032B431360136803F06B
:101730000703AB422DD1236813F0040F06D0174ADC
:10174000536823F4E063E1680B435360236813F0AC
:10175000080F07D0114A536823F46053216943EA04
:10176000C1035360FFF734FF0C4B5B68C3F30313F3
:101770000B4AD35CD8400B4B18600B4B1868FFF733
:10178000ABFC002070BD012070470120FAE701206A
:10179000F8E70120F6E700BF0020024000100240F9
:1017A000385E00080800002004000020014B186883
:1017B000704700BF0800002008B5FFF7F7FF044B93
:1017C0005B68C3F3C223034AD35CD84008BD00BFA3
:1017D00000100240485E000870B582B004460368FD
:1017E00013F0010F36D03F4BDB6913F0805F49D116
:1017F0003C4BDA6942F08052DA61DB6903F08053D6
:101800000193019B0125384B1B6813F4807F3BD06B
:10181000344B1B6A13F4407313D0626802F44072B5
:101820009A420ED02F4A136A23F440702F490126A2
:10183000C1F840640026C1F84064106213F0010F43
:1018400036D1284A136A23F4407361680B4313624C
:10185000002D3ED1236813F0020F06D0214A5368B1
:1018600023F44043A1680B435360236813F0100F27
:1018700034D01C4A536823F48003E1680B4353605F
:1018800000202CE00025BEE7174A136843F480735C
:101890001360FFF765FC0646134B1B6813F4807F4B
:1018A000B6D1FFF75DFC801B6428F5D9032016E054
:1018B000FFF756FC06460B4B1B6A13F0020FC0D114
:1018C000FFF74EFC801B41F288339842F3D9032086
:1018D00005E0D36923F08053D361BBE7002002B059
:1018E00070BD00BF00100240007000400000424286
:1018F00000B587B08446394B0FCB0DF1180E0EE9B9
:101900000F0040F20123ADF80430BCF1020F56D0B5
:10191000BCF1100F06D0BCF1010F2ED0002007B093
:101920005DF804FB2E4B5A68186810F08070F6D0F2
:10193000C2F3834318336B4413F8100C12F4803F46
:1019400017D0274B5B68C3F3404318336B4413F83D
:10195000142C244BB3FBF2F303FB00F0204B5B6829
:1019600013F4800FDBD140001F4BA3FB0030400875
:10197000D5E71E4B03FB00F0F0E7194B1B6A40F262
:1019800002321A40B2F5817F24D003F44073B3F5DC
:10199000007F04D0B3F5407F09D00020BFE7104A94
:1019A000526A12F0020FF5D049F64040B7E70C4BEF
:1019B000186810F40030B2D04FF22440AFE7FFF7C0
:1019C000FBFE074B5B68C3F3813301335B00B0FB65
:1019D000F3F0A4E74FF40040A1E700BF245E000845
:1019E0000010024000127A00ABAAAAAA00093D002A
:1019F00070B582B00024A446A6E0804DAA4210D063
:101A000007D97F4DAA420CD005F58035AA4208D0EF
:101A100013E0A5F58015AA4203D005F57025AA426A
:101A200007D18A68002A58D0012A51D0436108247E
:101A300003E0A5F58015AA42F3D0BEF1FF0F4ED802
:101A40000646BEF1FF0F4CD84FEA8C0233680F25D3
:101A5000954023EA050304FA02F2134333604B680E
:101A600013F0805F6ED0674B9A6942F001029A6171
:101A70009B6903F001030193019B4FEA9C02951CB3
:101A8000614B53F825600CF003039D000F23AB401E
:101A900026EA03065D4B984229D003F580639842FD
:101AA00000F08E8003F58063984200F08B8003F590
:101AB0008063984219D004231AE0CC68BDE7CC6853
:101AC0000434BAE7CC680834B7E7CC680C34B4E720
:101AD00003610824B1E70024AFE70424ADE7061D45
:101AE000AFE7ACF108029200B0E7032300E0002367
:101AF000AB4033430232444D45F822304B6813F477
:101B0000803F61D0424A136843EA0E0313604B687A
:101B100013F4003F5ED03E4A536843EA0E0353601D
:101B20004B6813F4801F5BD0394A936843EA0E0375
:101B300093604B6813F4001F58D0354AD36843EACA
:101B40000E03D3600CF1010C0A6832FA0CF353D087
:101B5000012303FA0CF302EA030E33EA0202F1D185
:101B60004A68122A3FF649AF122A3FF666AF01A52E
:101B700055F822F0231A0008BB1A0008C51A0008FD
:101B8000D71A00083B1A00083B1A00083B1A000845
:101B90003B1A00083B1A00083B1A00083B1A0008D1
:101BA0003B1A00083B1A00083B1A00083B1A0008C1
:101BB0003B1A00083B1A0008BF1A0008CB1A00089D
:101BC000012395E7022393E7114A136823EA0E03E2
:101BD00013609CE70E4A536823EA0E0353609FE7A5
:101BE0000B4A936823EA0E039360A2E7084AD3687E
:101BF00023EA0E03D360A5E702B070BD00002210F7
:101C000000003110001002400000014000080140B7
:101C100000040140074AD36823F4E0631B041B0C53
:101C2000000200F4E060034343F0BF6343F4003379
:101C3000D360704700ED00E000B5194BDB68C3F3DB
:101C40000223C3F1070CBCF1040F28BF4FF0040CB2
:101C500003F1040EBEF1060F18D9033B4FF0FF3E0F
:101C60000EFA0CFC21EA0C0199400EFA03F322EA69
:101C70000303194300280BDB0901C9B200F16040DE
:101C800000F5614080F800135DF804FB0023E5E7F0
:101C900000F00F000901C9B2024B1954F4E700BF6C
:101CA00000ED00E014ED00E0002807DB00F01F026B
:101CB000400901239340024A42F82030704700BF98
:101CC00000E100E00138B0F1807F0BD24FF0E0235B
:101CD0005861054AF02182F82310002098610722FC
:101CE0001A6170470120704700ED00E07047000066
:101CF00008B500220F49104802F09AFC70B90F494C
:101D00000D4802F0ACFC60B90D490B4803F051FBE3
:101D100050B9094802F0AAFC48B908BDFFF7DAF843
:101D2000EDE7FFF7D7F8EFE7FFF7D4F8F1E7FFF7B4
:101D3000D1F8F2E70C000020300200206C000020F7
:101D40005C00002012230B80004870472800002010
:101D500004230B80004870473C000020002393427E
:101D60001ED200B510E00CF1370C01F813C00001D1
:101D70004FEA430C0CF1010C4FF0000E01F80CE09F
:101D80000133DBB2934209D24FEA107CB0F1204F0D
:101D9000E9D20CF1300C01F813C0E8E75DF804FB60
:101DA0007047000038B50B4BD3F8E807D3F8EC4781
:101DB000D3F8F037C01800D138BD074D0822A91C50
:101DC000FFF7CCFF042205F112012046FFF7C6FF02
:101DD000F2E700BF00F0FF1F4000002008B51A2303
:101DE0000B80FFF7DFFF014808BD00BF4000002067
:101DF00008B50A4628B90549054803F08EF8034896
:101E000008BD0249024803F088F8F8E7F40400200E
:101E1000505E000810B50A46034C2146034803F003
:101E20007CF8204610BD00BFF4040020605E00086E
:101E300008B50A4628B90549054803F06EF8034875
:101E400008BD0249024803F068F8F8E7F4040020EE
:101E5000745E000808B50A4628B90549054803F02C
:101E60005CF8034808BD0249024803F056F8F8E759
:101E7000F4040020805E00080020704700207047B6
:101E800010B50146044C204603F0A2FA204603F0A8
:101E9000BFFA002010BD00BF3002002010B5064C74
:101EA00000220649204603F08BFA0549204603F03C
:101EB0008FFA002010BD00BF30020020DC0A002095
:101EC000F4060020094BD3F8B832D3F814320BB122
:101ED0000120704710B5054C0A460146204603F024
:101EE0006FFA204603F07AFA10BD00BF30020020DE
:101EF000022805D8DFE800F0050402000120704741
:101F00000220704702680E4B9A4200D0704700B51D
:101F100083B003F5DA33DA6942F40002DA61DB698F
:101F200003F400030193019B002211461420FFF7E4
:101F300083FE1420FFF7B8FE03B05DF804FB00BF7A
:101F4000005C004008B500F52C71D0F8E80202F002
:101F5000A5FB08BD08B501EB810300EBC303D3F873
:101F60007C21D0F8E80202F0C6FB08BD08B501EB01
:101F7000810300EBC303DA6BD0F8E80202F001FC46
:101F800008BD08B5D0F8E80202F0A2FC08BD10B503
:101F900004468368022B09D10121D4F8E80202F03B
:101FA00080FCD4F8E80202F054FC10BDFEF792FF6A
:101FB000F2E7000010B50446D0F8E80202F074FC25
:101FC000A36923B1024A136943F00603136110BDEC
:101FD00000ED00E008B5D0F8E80202F06EFC08BDA4
:101FE00010B504461D48C0F8E842C4F8C0021C4BB6
:101FF0000360082343600223836000238361C3617D
:10200000036200F023F930BB182300221146D4F8F4
:10201000C00201F028F8582300228021D4F8C00221
:1020200001F021F8C02300228121D4F8C00201F080
:102030001AF84FF4887300220121D4F8C00201F08D
:1020400012F84FF4807300228221D4F8C00201F00C
:102050000AF8002010BDFEF73DFFD5E7C40E0020B2
:10206000005C004008B5D0F8C00200F07BF9FFF733
:102070003FFF08BD08B594461A466346D0F8C00233
:1020800000F0B3FEFFF734FF08BD08B5D0F8C0027A
:1020900000F0EDFEFFF72CFF08BD08B5D0F8C00238
:1020A00000F06AFFFFF724FF08BD08B5D0F8C002B2
:1020B00000F09EFFFFF71CFF08BDD0F8C03211F002
:1020C000800F08D101F07F0101EB810103EBC10119
:1020D00091F86A01704701F07F01013101EB810144
:1020E00003EBC1018878704708B5D0F8C00200F052
:1020F0007EFDFFF7FDFE08BD08B5D0F8C00200F078
:1021000013FFFFF7F5FE08BD08B5D0F8C00200F0D8
:10211000E0FEFFF7EDFE08BD08B5D0F8C00200F004
:10212000FAFE08BD00487047B011002070477047A4
:1021300038B512F4804F44D00468B4F850309BB2E4
:1021400091F800C003EBCC03023304EB4303B3F874
:102150000044C4F309048B69A34228D31B1B8B6181
:102160008B697BB9056835F82C309BB223F480432A
:1021700023F0700383F4005343F4004343F08003DF
:1021800025F82C3012F0400F0ED002680D7832F88E
:1021900025309BB223F4E04323F0700343F4004363
:1021A00043F0C00322F8253024B9204638BD00236F
:1021B0008B61D5E723460A894969006801F036FF3B
:1021C000F3E70468B4F850309BB291F800C003EB19
:1021D000CC03063304EB4303B3F80044C4F309040F
:1021E0008B69A3422FD31B1B8B618B697BB905685D
:1021F00035F82C309BB223F4804323F0700383F432
:10220000005343F4004343F0800325F82C3012F0D0
:10221000400F0FD1026891F800C032F82C309BB209
:1022200023F4E04323F0700343F4004343F0C0037E
:1022300022F82C30002CB8D023464A89496900681E
:1022400001F0F4FEB1E700238B61CEE770B586B0F4
:10225000002800F08580044690F8A932EBB10323F2
:1022600084F8A932206800F02AFF254655F8106B43
:10227000EC460FCDACE80F002B68CCF80030231DE6
:102280000ECB304600F00BFF054658B1022384F810
:10229000A9320125284606B070BD80F8A832FFF7A4
:1022A00031FEDCE70021206800F013FF2B461AE026
:1022B0005A1C02EB820104EBC1010120487002EBC1
:1022C000820104F8313003EB830104EBC101CB86BA
:1022D00002EB820C04EBCC0C00208CF8030088632A
:1022E000C8630864D3B261688B42E1D316E005EBA2
:1022F000850304EBC303002283F8692183F8685146
:1023000083F86B21C3F87821C3F87C2105EB8503A2
:1023100004EBC303C3F880210135EDB2A942E6D82E
:10232000254655F8106BEC460FCDACE80F002B6836
:10233000CCF80030231D0ECB304600F0CCFE054615
:1023400020B1022384F8A9320125A3E7002384F8F1
:102350002430012384F8A932206801F0F2F999E7CA
:10236000012597E738B590F8A832012B11D0044623
:10237000012580F8A852006800F098FE2946204602
:10238000FFF7D5FE206801F0DAF9002084F8A802F2
:1023900038BD0220FCE770B505460C46164612F023
:1023A000400F00F00D810268B2F850309BB20978FE
:1023B00003EBC103023302EB4303B3F80024C2F37F
:1023C0000902A369934252D99B1AA361A369002B06
:1023D0006AD16378002B4DD12B68B3F8502092B2AC
:1023E000134403EB0111B1F804349BB223F4F84316
:1023F0009BB2A1F80434B1F804346FEA43436FEAA6
:1024000053439BB2A1F804342B686278002A3ED172
:10241000B3F8502092B21344227803EB0213B3F8BE
:102420000C2492B222F4F84292B2A3F80C24B3F82E
:102430000C246FEA42426FEA524292B2A3F80C2493
:1024400021782846FFF792FD16F4804F41D02A6884
:10245000217832F821309BB223F4E04323F070035B
:1024600043F4404343F0800322F8213031E000235D
:10247000A361ABE7012BC7D12B68B3F8502092B210
:10248000134403EB01110023A1F80434BCE7012A33
:10249000D6D1B3F8502092B21344227803EB021342
:1024A0000022A3F80C24CBE716F4804F0DD0286847
:1024B00030F821309BB223F4E04323F0700343F45F
:1024C000404343F0800320F8213094F82430012B5E
:1024D00012D02A68217832F821309BB223F4E043ED
:1024E00023F0400383F0300343F4004343F08003C0
:1024F00022F82130002070BD636913446361E369F1
:102500001344E361216A236999421FD3C91A2162E6
:102510006278002A3FD12A68B2F8501089B20A4482
:10252000217802EB0112EBB9B2F8041489B221F45C
:10253000F84189B2A2F80414B2F804146FEA4141D8
:102540006FEA514189B2A2F8041426E021B90023B0
:1025500084F824301346DBE7002384F82430236218
:102560000B46D5E73E2B09D8590813F0010F00D0D0
:102570000131890289B2A2F804140EE0590913F05E
:102580001F0F00D101396FEAC1616FEA514189B271
:10259000A2F8041401E0012A06D09BB222896169E5
:1025A000286801F0D6F894E72A68B2F8501089B28A
:1025B0000A44217802EB011299B2A2F80414ECE764
:1025C0000268B2F850309BB2097803EBC1030633BE
:1025D00002EB4303B3F80024C2F30902A369934258
:1025E00053D39B1AA361A369002B6BD16378002B93
:1025F0004ED12B68B3F8502092B2134403EB011173
:10260000B1F804349BB223F4F8439BB2A1F804342C
:10261000B1F804346FEA43436FEA53439BB2A1F825
:1026200004342B686278002A3FD1B3F8502092B26C
:102630001344227803EB0213B3F80C2492B222F471
:10264000F84292B2A3F80C24B3F80C246FEA424289
:102650006FEA524292B2A3F80C2421782846FFF781
:1026600085FC16F4804F7FF434AF2A68217832F865
:1026700021309BB223F4E04323F0700343F4404342
:1026800043F0800322F8213023E70023A361AAE767
:10269000012BC6D12B68B3F8502092B2134403EB40
:1026A00001110023A1F80434BBE7012AD5D1B3F806
:1026B000502092B21344227803EB02130022A3F8B5
:1026C0000C24CAE716F4804F0DD1286830F8213069
:1026D0009BB223F4E04323F0700343F4404343F000
:1026E000800320F8213094F82430012B7FF4F1AEE0
:1026F000636913446361E3691344E361216A2369F5
:1027000099421FD3C91A21622A68617800293ED1F3
:10271000B2F8501089B20A44217802EB0112EBB9E9
:10272000B2F80C1489B221F4F84189B2A2F80C1461
:10273000B2F80C146FEA41416FEA514189B2A2F834
:102740000C1426E021B9002384F824301346DBE77B
:102750000023236284F824300B46D5E73E2B09D8AA
:10276000590813F0010F00D00131890289B2A2F893
:102770000C140EE0590913F01F0F00D101396FEA54
:10278000C1616FEA514189B2A2F80C1401E001293C
:1027900006D09BB262896169286800F0DAFF98E68A
:1027A000B2F8501089B20A44217802EB011299B2B2
:1027B000A2F80C14EDE72DE9F04105462868B0F8C1
:1027C000443013F4004F00F00F82B0F84440A3B23D
:1027D00014F00F0440F0D88013F0100F61D003887C
:1027E0009AB213F4006F40F0938012F4004FE5D0DA
:1027F000038823F070031B051B0D43F08003038047
:102800002868B0F850309BB295F8682103EBC203FA
:10281000063300EB4303B3F80034C3F30903C5F8F0
:1028200084318BB1D5F87C1171B1B5F86E2101F00E
:10283000FDFBD5F88421D5F87C311344C5F87C31F3
:1028400000212846FFF786FB2B681A8812F4006FD8
:10285000B4D1B3F8502092B21344D5F87821002AAD
:1028600079D1B3F80C2492B222F4F84292B2A3F8D0
:102870000C24B3F80C246FEA42426FEA524292B23F
:10288000A3F80C242A6813889BB223F4804323F016
:10289000700383F4405343F4004343F080031380F8
:1028A0008CE703889BB223F4E14323F070036FEAC3
:1028B00043436FEA53439BB203802A68B2F8503017
:1028C0009BB295F8281003EBC103023302EB4303DC
:1028D000B3F80034C3F309036B64EA6B1344EB638E
:1028E00000212846FFF742FB95F82430002B3FF4E7
:1028F00065AF2B6C002B7FF461AF95F824302A680C
:1029000043F08003A2F84C30002385F8243055E7CB
:10291000B0F850309BB295F8682103EBC203063340
:1029200000EB4303B3F80034C3F30903C5F8843163
:10293000B5F86E2105F52C7101F078FB2A68138833
:1029400023F070031B051B0D43F080031380284602
:10295000FFF7F8FA32E73E2A09D8510812F0010FC2
:1029600000D001318A0292B2A3F80C248AE75109FF
:1029700012F01F0F00D101396FEAC1626FEA5242B3
:1029800092B2A3F80C247DE730F824309EB213F401
:10299000004F4FD116F0800F3FF410AF621C02EBD6
:1029A000820105EBC101286830F824309BB223F482
:1029B000E14323F070036FEA43436FEA53439BB252
:1029C00020F82430CB78032B07D033B1022B40F012
:1029D000068116F4807F40F002812868B0F85030FC
:1029E0009BB2621C02EB820215F8326003EBC60355
:1029F000023300EB4303B3F80034C3F3090304EBE1
:102A0000840205EBC202126C9A4240F2D48004EBBD
:102A1000840705EBC707D21A3A6404EB840205EB7E
:102A2000C202126C002A40F0CD8031462846FFF7E2
:102A30009DFAC3E630F8243023F070031B051B0D0C
:102A400043F0800320F8243004EB8401C90001F531
:102A5000B47105EB010804EB840305EBC30393F8A1
:102A60007431002B42D12868B0F850309BB204EB8F
:102A7000840205EBC20292F8682103EBC20306331D
:102A800000EB4303B3F80074C7F3090717BB04EB6B
:102A9000840305EBC303D3F884213A44C3F88421AB
:102AA000D3F87C213A44C3F87C21D3F880313BB180
:102AB00004EB840305EBC303D3F878319F4275D24E
:102AC00004EB840305EBC30393F868112846FFF772
:102AD00041FA5FE704EB840105EBC1013B46B1F825
:102AE0006E21D1F87C1101F0A1FAD0E704EB840348
:102AF00005EBC30393F86B31022B35D0296804EB47
:102B0000840205EBC20292F8680131F820309BB2D2
:102B100023F4E04323F0700343F4004343F0C00385
:102B200021F82030286892F8682130F8223013F418
:102B3000804F20D0B0F850309BB203EBC203023379
:102B400000EB4303B3F80074C7F30907002F9ED0CE
:102B500004EB840105EBC1013B46B1F87021D1F8CB
:102B60007C1101F063FA92E7324641462846FFF7AE
:102B7000DFFA07468BE7B0F850309BB203EBC20395
:102B8000063300EB4303B3F80074C7F30907002FC3
:102B90003FF47DAF04EB840105EBC1013B46B1F886
:102BA0007221D1F87C1101F041FA70E741462868A2
:102BB00000F0E3FDEEE604EB840205EBC202002721
:102BC00017642AE704EB840205EBC202D66B1E44AD
:102BD000D663546C2344536400F0CFFDEEE53246D7
:102BE0002846FFF7D8FBE9E50020BDE8F08190F822
:102BF000A832012B0DD010B50446012380F8A8326D
:102C000080F82410006800F094FD002084F8A802E9
:102C100010BD0220704710B584B00446006800F073
:102C200092FD10F4004F47D1206800F08CFD10F4A5
:102C3000806F45D1206800F086FD10F4804F08D0E9
:102C40002268B2F844309BB223F480439BB2A2F8CE
:102C50004430206800F077FD10F4005F08D022684F
:102C6000B2F844309BB223F400539BB2A2F8443034
:102C7000206800F068FD10F4805F32D1206800F019
:102C800062FD10F4006F78D1206800F05CFD10F454
:102C9000007F40F09D80206800F055FD10F4807F9B
:102CA00008D02268B2F844309BB223F480739BB200
:102CB000A2F8443004B010BD2046FFF77CFDB3E716
:102CC0002268B2F844309BB223F480639BB2A2F82E
:102CD00044302046FFF75BF900212046FFF787FFCD
:102CE000A8E72268B2F840309BB223F004039BB2FD
:102CF000A2F840302268B2F840309BB223F00803BB
:102D00009BB2A2F840302046FFF764F92268B2F87F
:102D100044309BB223F480539BB2A2F84430ADE719
:102D2000226832F8231004AA02EB430222F8101C96
:102D30000133DBB2072BF3D92268B2F840309BB2E3
:102D400043F00103A2F840302268B2F840309BB251
:102D500023F001039BB2A2F840302368B3F844206B
:102D600012F4806FF9D0B3F8442092B222F480625A
:102D700092B2A3F8442000230BE00023DAE7226894
:102D800004A901EB430131F8101C22F82310013390
:102D9000DBB2072BF3D92268B2F840309BB243F084
:102DA0000803A2F840302268B2F844309BB223F402
:102DB00000639BB2A2F844302268B2F840309BB264
:102DC00043F00403A2F840302046FFF7F3F85BE736
:102DD0002268B2F844309BB223F400739BB2A2F88D
:102DE00044302046FFF7CDF855E710B504468C4631
:102DF00011F0800F2AD101F0070000EB8001C9001B
:102E000001F5B47E04EB0E0100EB800004EBC00082
:102E10004FF0000E80F869E10CF0070C81F800C05B
:102E20000A61CB704A780AB1A1F80EC0022B19D002
:102E300094F8A832012B18D0012384F8A832206816
:102E400000F05AF9002084F8A80210BD01F0070034
:102E5000013000EB800104EBC1014FF0010E81F85D
:102E600001E0D9E700230B71E2E70220EDE710B59E
:102E700004460B4611F0800F1FD101F0070202EB50
:102E80008201C90001F5B471014402EB820200EB3A
:102E9000C202002082F8690103F007030B7094F866
:102EA000A832012B13D0012384F8A832206800F047
:102EB000DFFA002084F8A80210BD01F007020132F9
:102EC00002EB820100EBC10101204870E4E702201F
:102ED000F2E710B501F0070404EB8401C90001F525
:102EE000B471014404EB840C00EBCC0CCCF87C21D5
:102EF000CCF880310023CCF884318CF869318CF81F
:102F0000684124B9006800F038FC002010BD00685A
:102F100000F033FCF9E701F0070101EB810100EB60
:102F2000C101D1F88401704710B501F0070404F124
:102F3000010C0CEB8C0100EBC10104EB840E00EBE7
:102F4000CE0ECEF83C20CEF8403001228EF84C2038
:102F5000CEF848300023CEF844304A700CEB8C0C8D
:102F600000F83C4024B9006800F007FC002010BDC8
:102F7000006800F002FCF9E738B501F00705426887
:102F8000954231D804460B4611F0800F1ED101EB5B
:102F90008101C90001F5B471014403EB830300EB27
:102FA000C303002283F8692101238B700D7094F80C
:102FB000A832012B1AD0012384F8A832206800F02F
:102FC00042FB5DB1002084F8A80238BD6B1C03EB06
:102FD000830100EBC10101224A70E5E704F52C7181
:102FE000206800F0B4FBEDE70120EEE70220ECE7FB
:102FF0000B4601F00F014268914230D810B50446EB
:1030000013F0800F21D103F0070202EB8201C90007
:1030100001F5B471014402EB820200EBC202002010
:1030200082F8690100228A7003F007030B7094F89C
:10303000A832012B15D0012384F8A832206800F0B3
:1030400027FB002084F8A80210BD03F0070201321C
:1030500002EB820100EBC10101204870E2E7012090
:1030600070470220F0E711F0800F0BD001F007014C
:10307000013101EB810100EBC10152B90A73CB8030
:103080000020704701EB8101C90001F5B4710144D2
:10309000F3E701220A730B811B0C4B81F0E784B02C
:1030A00001A880E80E00002004B07047034600200D
:1030B000A3F844004FF43F42A3F840207047B0F813
:1030C000403023F47C535B045B0CA0F840300020BC
:1030D00070470020704784B0844601A880E80E0045
:1030E0000123ACF840300020ACF84000ACF84400BC
:1030F000ACF8500004B0704710B5034691F800C01A
:1031000030F82C2092B222F4EC4222F0700292B2FB
:10311000C878032861D8DFE800F0555C0258002029
:1031200048F2800E42EA0E0223F82C2091F800C0EB
:1031300033F82C2092B222F4E04222F070024CEAE2
:10314000020242EA0E0223F82C200A7B002A40F0F9
:10315000C4804A78002A51D0B3F8502092B21A4461
:103160000C7802EB0412B1F806C04FEA5C0C4FEA8F
:103170004C0CA2F800C40C7833F8242012F0400F55
:103180000CD033F8242092B222F4E04222F07002F4
:1031900042F4004242F0C00223F82420CA78012AF7
:1031A0001DD0097833F8212092B222F4E04222F0B7
:1031B000400282F0200242F4004242F0800223F8F2
:1031C00021206AE042F40072AAE742F4C0620020C3
:1031D000A6E742F480620020A2E70120A0E7097878
:1031E00033F8212092B222F4E04222F0400242F46D
:1031F000004242F0800223F821204EE0B3F8502034
:1032000092B21A440C7802EB0412B1F806C04FEAED
:103210005C0C4FEA4C0CA2F808C4B3F8502092B2F0
:103220001A440C7802EB04120C69BCBBB2F80CC453
:103230001FFA8CFC2CF4F84C1FFA8CFCA2F80CC47E
:10324000B2F80CC46FEA4C4C6FEA5C4C1FFA8CFC71
:10325000A2F80CC40C7833F8242012F4804F0CD060
:1032600033F8242092B222F4E04222F0700242F4B9
:10327000404242F0800223F82420097833F82120CC
:1032800092B222F4804222F0700282F4405242F460
:10329000004242F0800223F8212010BD3E2C0DD8C0
:1032A0004FEA540C14F0010F01D00CF1010C4FEA5D
:1032B0008C2C1FFA8CFCA2F80CC4CBE74FEA541CF0
:1032C00014F01F0F01D10CF1FF3C6FEACC646FEAE0
:1032D0005444A4B2A2F80C44BCE791F800C033F8FF
:1032E0002C2092B222F4E04222F0700242F4014219
:1032F00042F0800223F82C20B3F8502092B21A44F6
:1033000091F800C002EB0C12B1F808C04FEA5C0C57
:103310004FEA4C0CA2F800C4B3F8502092B21A4401
:1033200091F800C002EB0C12B1F80AC04FEA5C0C35
:103330004FEA4C0CA2F808C44A78002A41D10C7814
:1033400033F8242012F4804F0CD033F8242092B2AA
:1033500022F4E04222F0700242F4404242F0800245
:1033600023F824200C7833F8242012F0400F0CD0DE
:1033700033F8242092B222F4E04222F0700242F4A8
:10338000004242F0C00223F8242091F800C033F834
:103390002C2092B222F4804222F0700282F4405239
:1033A00048F28004224323F82C20097833F82120A6
:1033B00092B222F4E04222F04002224323F821207C
:1033C0006BE70C7833F8242012F4804F0CD033F8DC
:1033D000242092B222F4E04222F0700242F44042F1
:1033E00042F0800223F824200C7833F8242012F0D5
:1033F000400F0CD033F8242092B222F4E04222F0A5
:10340000700242F4004242F0C00223F82420CA783D
:10341000012A1ED00C7833F8242092B222F4E04224
:1034200022F0400282F0200242F4004242F0800288
:1034300023F82420097833F8212092B222F4804224
:1034400022F0700242F4004242F0800223F8212070
:1034500023E70C7833F8242092B222F4E04222F0E1
:10346000400242F4004242F0800223F82420E1E7C7
:103470000B7B002B46D14B7813B30A7830F82230FF
:1034800013F0400F0CD030F822309BB223F4E0430D
:1034900023F0700343F4004343F0C00320F82230CC
:1034A0000A7830F822309BB223F4E04323F0400343
:1034B00043F4004343F0800320F82230002070479B
:1034C0000A7830F8223013F4804F0CD030F82230D4
:1034D0009BB223F4E04323F0700343F4404343F0F2
:1034E000800320F822300A7830F822309BB223F48F
:1034F000804323F0700343F4004343F0800320F83B
:103500002230DBE74B78002B4ED10A7830F822309E
:1035100013F4804F0CD030F822309BB223F4E043F8
:1035200023F0700343F4404343F0800320F822303B
:103530000A7830F8223013F0400F0CD030F82230E7
:103540009BB223F4E04323F0700343F4004343F0C1
:10355000C00320F822300A7830F822309BB223F4DE
:10356000E04323F0700343F4004343F0C00320F82A
:1035700022300B7830F8232092B222F4804222F0DD
:10358000700248F2800C42EA0C0220F823200A78EC
:1035900030F822309BB223F4E04323F0400343EAA7
:1035A0000C0320F8223089E70A7830F8223013F42F
:1035B000804F0CD030F822309BB223F4E04323F04C
:1035C000700343F4404343F0800320F822300A782C
:1035D00030F8223013F0400F0CD030F822309BB27C
:1035E00023F4E04323F0700343F4004343F0C003AB
:1035F00020F822300A7830F822309BB223F4E043DE
:1036000023F0700343F4404343F0800320F822305A
:103610000B7830F8232092B222F4E04222F04002EC
:1036200048F2800C42EA0C0220F823200A7830F895
:1036300022309BB223F4804323F0700343EA0C034F
:1036400020F822303AE74B788BB10A7830F82230F4
:103650009BB223F4E04323F0400383F0100343F4D0
:10366000004343F0800320F82230002070470A789E
:1036700030F822309BB223F4804323F0700383F4AC
:10368000805343F4004343F0800320F82230ECE7FA
:103690000B7B002B4BD14B7833B30A7830F82230B8
:1036A00013F0400F0CD030F822309BB223F4E043EB
:1036B00023F0700343F4004343F0C00320F82230AA
:1036C000CB78012B33D00A7830F822309BB223F428
:1036D000E04323F0400383F0200343F4004343F02E
:1036E000800320F8223022E00A7830F8223013F4E8
:1036F000804F0CD030F822309BB223F4E04323F00B
:10370000700343F4404343F0800320F822300A78EA
:1037100030F822309BB223F4804323F0700383F40B
:10372000405343F4004343F0800320F8223000204C
:10373000704711B98023A0F84C300020704700205A
:10374000704700207047B0F8440080B270470020F6
:10375000704710B45C1C640800EB420202F5806202
:1037600007E00B78487843EA002322F8043B023153
:10377000013C002CF5D110BC704770B505460C46D5
:103780004B78012B37D00A7B002A40F026838B69C7
:103790000A69934240F204839B1A8B61B5F850305A
:1037A0009BB22B44217803EB0113002A40F0FC82EA
:1037B000B3F80C2492B222F4F84292B2A3F80C248B
:1037C000B3F80C246FEA42426FEA524292B2A3F875
:1037D0000C24227835F822309BB223F4804323F066
:1037E000700383F4405343F4004343F0800325F80F
:1037F0002230002070BD8E690A69964200D91646B3
:10380000237B002B39D0E378022B58D0227835F86F
:1038100022309BB223F4E04323F0700343F40143CE
:1038200043F0800325F82230236A9B1B2362237810
:1038300035F8232012F0400F00F026826278002A2B
:1038400040F0CA81B5F8502092B22A4402EB03132B
:10385000002E40F0A881B3F80C2492B222F4F84272
:1038600092B2A3F80C24B3F80C246FEA42426FEA38
:10387000524292B2A3F80C24B0E1B6B23346E288C9
:1038800061692846FFF765FFB5F850309BB22B44BD
:10389000227803EB0213A3F80464227835F822306F
:1038A0009BB223F4E04323F0400383F0300343F45E
:1038B000004343F0800325F8223000209AE7236A72
:1038C0009A4280F05281227835F822309BB223F45C
:1038D000E04323F0700343F4014343F0800325F8F1
:1038E0002230236A9B1B2362237835F8232012F0B1
:1038F000400F00F09D8062788ABBB5F8502092B2EC
:103900002A4402EB03138EB9B3F80C2492B222F4CA
:10391000F84292B2A3F80C24B3F80C246FEA4242A6
:103920006FEA524292B2A3F80C241AE03E2E09D854
:10393000720816F0010F00D00132920292B2A3F881
:103940000C240EE0720916F01F0F00D1013A6FEA45
:10395000C2626FEA524292B2A3F80C2401E0012A3B
:103960002BD0B3B2628961692846FFF7F2FE636922
:1039700033446361236A2269934228D99B1B2362E3
:103980006378002B40D1B5F850309BB22B4422789D
:1039900003EB0213FEB9B3F8042492B222F4F84206
:1039A00092B2A3F80424B3F804246FEA42426FEA07
:1039B000524292B2A3F8042428E0B5F8502092B203
:1039C0002A4402EB0313B2B2A3F80C24C9E7002285
:1039D00022621E46D4E73E2E09D8720816F0010F67
:1039E00000D00132920292B2A3F804240EE07209D0
:1039F00016F01F0F00D1013A6FEAC2626FEA52421D
:103A000092B2A3F8042401E0012B06D0B3B22289BC
:103A100061692846FFF79DFE3FE7B5F850309BB23D
:103A20002B44227803EB0213B2B2A3F80424EDE78F
:103A300062788ABBB5F8502092B22A4402EB031395
:103A40008EB9B3F8042492B222F4F84292B2A3F8E9
:103A50000424B3F804246FEA42426FEA524292B25D
:103A6000A3F804241AE03E2E09D8720816F0010FBC
:103A700000D00132920292B2A3F804240EE072093F
:103A800016F01F0F00D1013A6FEAC2626FEA52428C
:103A900092B2A3F8042401E0012A2BD0B3B2228908
:103AA00061692846FFF755FE636933446361236A01
:103AB0002269934228D99B1B23626378002B40D153
:103AC000B5F850309BB22B44227803EB0213FEB9B9
:103AD000B3F80C2492B222F4F84292B2A3F80C2468
:103AE000B3F80C246FEA42426FEA524292B2A3F852
:103AF0000C2428E0B5F8502092B22A4402EB0313BC
:103B0000B2B2A3F80424C9E7002222621E46D4E719
:103B10003E2E09D8720816F0010F00D00132920231
:103B200092B2A3F80C240EE0720916F01F0F00D118
:103B3000013A6FEAC2626FEA524292B2A3F80C24D1
:103B400001E0012B06D0B3B2628961692846FFF714
:103B500000FEA2E6B5F850309BB22B44227803EB6E
:103B60000213B2B2A3F80C24EDE7217835F8212036
:103B700092B222F4E24222F0700242F4004242F099
:103B8000800225F82120B5F8502092B22A442178ED
:103B900002EB01129BB2A2F8043422896169284623
:103BA000FFF7D7FD79E63E2E09D8720816F0010F0F
:103BB00000D00132920292B2A3F80C240EE07209F6
:103BC00016F01F0F00D1013A6FEAC2626FEA52424B
:103BD00092B2A3F80C2401E0012A26D0B3B2628984
:103BE00061692846FFF7B5FD636933446361236A61
:103BF0002269934223D99B1B2362002E3FF44DAED2
:103C000063786BBBB5F850309BB22B44227803EB42
:103C100002133E2E17D8720816F0010F00D00132A1
:103C2000920292B2A3F804241CE0B5F8502092B29C
:103C30002A4402EB0313B2B2A3F80C24CEE700220D
:103C400022621E46D9E7720916F01F0F00D1013A11
:103C50006FEAC2626FEA524292B2A3F8042401E012
:103C6000012B06D0B3B2228961692846FFF771FDA6
:103C700013E6B5F850309BB22B44227803EB0213C5
:103C8000B2B2A3F80424EDE762788ABBB5F85020FD
:103C900092B22A4402EB03138EB9B3F8042492B211
:103CA00022F4F84292B2A3F80424B3F804246FEA91
:103CB00042426FEA524292B2A3F804241AE03E2E26
:103CC00009D8720816F0010F00D00132920292B2A8
:103CD000A3F804240EE0720916F01F0F00D1013A78
:103CE0006FEAC2626FEA524292B2A3F8042401E082
:103CF000012A26D0B3B2228961692846FFF729FD3F
:103D0000636933446361236A2269934223D99B1B0D
:103D10002362002E3FF4C1AD63786BBBB5F8503021
:103D20009BB22B44227803EB02133E2E17D8720865
:103D300016F0010F00D00132920292B2A3F80C24C7
:103D40001CE0B5F8502092B22A4402EB0313B2B241
:103D5000A3F80424CEE7002222621E46D9E77209A6
:103D600016F01F0F00D1013A6FEAC2626FEA5242A9
:103D700092B2A3F80C2401E0012B06D0B3B2628901
:103D800061692846FFF7E5FC87E5B5F850309BB23E
:103D90002B44227803EB0213B2B2A3F80C24EDE714
:103DA00000228A611A46F9E43E2A09D8510812F025
:103DB000010F00D00131890289B2A3F80C1408E583
:103DC000510912F01F0F00D101396FEAC1616FEA8A
:103DD000514189B2A3F80C14FBE4CA78022A45D0F9
:103DE000012A40F0208189692269914240F2D48001
:103DF000891AA161D3B9B5F850309BB22B44217810
:103E000003EB0113002A40F0CB80B3F8041489B20D
:103E100021F4F84189B2A3F80414B3F804146FEA4A
:103E200041416FEA514189B2A3F804146378002B31
:103E300040F0EA80B5F850309BB22B44217803EB78
:103E40000113002A40F0C580B3F80C2492B222F48A
:103E5000F84292B2A3F80C24B3F80C246FEA424261
:103E60006FEA524292B2A3F80C24B2E4CBB9B0F894
:103E700050309BB203440A7803EB02130A6972BB09
:103E8000B3F8042492B222F4F84292B2A3F80424C4
:103E9000B3F804246FEA42426FEA524292B2A3F8A6
:103EA00004246378002B4CD1B5F850309BB22B44DE
:103EB000227803EB0213226952BBB3F80C2492B2AE
:103EC00022F4F84292B2A3F80C24B3F80C246FEA5F
:103ED00042426FEA524292B2A3F80C2433E03E2AE7
:103EE00009D8510812F0010F00D001318A0292B2B4
:103EF000A3F80424D5E7510912F01F0F00D10139AE
:103F00006FEAC1626FEA524292B2A3F80424C8E792
:103F10003E2A09D8510812F0010F00D001318A025F
:103F200092B2A3F80C240EE0510912F01F0F00D139
:103F300001396FEAC1626FEA524292B2A3F80C24CF
:103F400001E0012B1DD0E369002B3FF442AC227845
:103F500035F8221044F2400303EA01008B4302D0FB
:103F600000287FF436AC35F822309BB223F4E043CE
:103F700023F0700343F4004343F0C00325F82230DC
:103F800027E4B5F850309BB22B44227803EB0213A0
:103F9000228AA3F80C24D6E70022A2610A4629E768
:103FA0003E2A09D8510812F0010F00D001318902D0
:103FB00089B2A3F8041439E7510912F01F0F00D198
:103FC00001396FEAC1616FEA514189B2A3F8041463
:103FD0002CE73E2A0AD8510812F0010F00D0013117
:103FE0008A0292B2A3F80C24FFF7F3BB510912F036
:103FF0001F0F00D101396FEAC1626FEA524292B2DB
:10400000A3F80C24FFF7E5BB012B7FF4E2ABB5F876
:1040100050309BB22B44217803EB011392B2A3F8EA
:104020000C24FFF7D6BB0120FFF7E4BB10B45C08FB
:1040300000EB420000F5806007E030F8042B0A70C6
:10404000C2F307224A700231013C002CF5D113F073
:10405000010F01D003880B7010BC7047F0B583B01E
:1040600005460C4600230193FDF77AF82B689A6801
:1040700012F4807F23D107465A6812F4807F03D15F
:10408000DB6A13F4700F29D0504B1E680220FDF735
:104090002FFCB6FBF0F62B6819694D4A114236D158
:1040A000D96802F15C42114231D11969494A114281
:1040B00040D1DA68484B1A423ED0292041E0AB6A31
:1040C00043F02003AB62002385F82430012003B0C5
:1040D000F0BD2B681B6813F0020F0FD02B681B6814
:1040E00013F0020F4FD1B4F1FF3FF7D0002CF0D006
:1040F000FDF736F8C31BA342F0D9EAE7AB6A43F0F9
:104100000403AB62002385F824300320DFE719693C
:10411000304A114204D1D96802F16E4211420DD0E9
:1041200019692E4A0A405AB9DA682C4B13405BB120
:10413000FC2006E0292004E0142002E0542000E0E6
:10414000FC2000FB06F607E05420FAE7019BB3428F
:1041500010D3019B01330193019BB34213D2B4F1FD
:10416000FF3FF6D0002CF1D0FCF7FAFFC01BA042B5
:10417000EFD9EBE7AB6A43F00403AB62002385F8A9
:1041800024300320A3E72B686FF012021A60AB6A99
:1041900043F40073AB622B689B6803F46023B3F5B0
:1041A000602F01D0002092E7287B60B9AB6A23F42E
:1041B0008073AB62AB6A13F4805F88D1AB6A43F063
:1041C0000103AB6283E7002081E700BF0800002005
:1041D00024499224922449129224490049922400AD
:1041E0000368D86C7047000030B482B0002201929E
:1041F00090F82420012A00F091800346012280F8E3
:1042000024204A68062A2DD80468606B02EB8202DB
:10421000053A4FF01F0C0CFA02FC20EA0C000D6866
:1042200005FA02F2024362630A68092A3AD91C6855
:10423000E06802EB42021E3A4FF0070C0CFA02FC57
:1042400020EA0C008D6805FA02F20243E2600A6877
:10425000103A012A36D90020002283F8242002B027
:1042600030BC70470C2A0ED80568286B02EB82021E
:10427000233A1F24944020EA04000C6804FA02F256
:1042800002432A63D0E70568E86A02EB8202413AFA
:104290001F24944020EA04000C6804FA02F202434E
:1042A000EA62C1E71C68206902EB42024FF0070C8A
:1042B0000CFA02FC20EA0C008D6805FA02F20243B7
:1042C0002261C4E71A681648824205D09A6A42F011
:1042D00020029A620120BFE7906810F4000F1BD102
:1042E000906840F4000090600A68102A01D0002015
:1042F000B2E70C4A12680C49A1FB0212920C02EBC5
:1043000082025200019202E0019A013A0192019A5E
:10431000002AF9D100209FE700209DE702209EE7B8
:10432000002401400800002083DE1B4330B583B029
:104330000023019303689A6812F0010F33D10446F9
:104340009A6842F001029A60184B1B68184AA2FB57
:1043500003239B0C019302E0019B013B0193019B12
:10436000002BF9D1FCF7FCFE054623689B6813F08F
:10437000010F16D1FCF7F4FE431B022BF5D923687D
:104380009B6813F0010FF0D1A36A43F01003A362FE
:10439000E36A43F00103E362002384F82430012040
:1043A00002E0002000E0002003B030BD0800002043
:1043B00083DE1B4390F82430012B68D010B50446EF
:1043C000012380F82430FFF7B1FF00285BD1A36AF6
:1043D00023F4407323F0010343F48073A362236842
:1043E0002C4A934227D0A26A22F48012A2625A6811
:1043F00012F4806F05D0A26A22F4405242F4805237
:10440000A262A26A12F4805F2BD0E26A22F0060256
:10441000E262002284F824206FF002021A6023680E
:104420009A6802F46022B2F5602F1DD09A6842F4B7
:1044300080129A602AE0A2F58062526812F4702F0E
:10444000D1D0A26A42F48012A262134A526812F4D6
:10445000806FD6D0A26A22F4405242F48052A26207
:10446000CFE70022E262D4E70A4A934204D09A6876
:1044700042F4A0029A6009E0A2F58062526812F448
:10448000702FD3D1F3E7002384F8243010BD02202D
:10449000704700BF002801400024014038B5036880
:1044A0009A6812F0010F01D1002038BD04469A68C5
:1044B00022F001029A60FCF753FE054623689B68D0
:1044C00013F0010F13D0FCF74BFE431B022BF5D961
:1044D00023689B6813F0010FF0D0A36A43F0100328
:1044E000A362E36A43F00103E3620120DDE70020F9
:1044F000DBE7000000287BD070B50446836A002B00
:104500004DD02046FFF7CAFFA36A13F0100369D10C
:10451000002867D1A26A22F4885222F0020242F0F7
:104520000202A2626268E1690A43217B42EA410217
:10453000A568B5F5807F02D0012D36D01D46267DB9
:10454000012E35D02668716821F4694129437160D4
:104550002568AE68274931401143A960A168B1F5CB
:10456000807F01D0012902D12369013B1B05256809
:10457000E96A21F470010B43EB62236899681E4BD2
:104580000B409A4225D0A36A23F0120343F0100394
:10459000A362E36A43F00103E362012027E0C36200
:1045A00080F82430FCF768FDABE74FF48075C6E770
:1045B00031B9A169013945EA413141F40065C1E7EA
:1045C000A16A41F02001A162E16A41F00101E162CA
:1045D000B8E70023E362A36A23F0030343F0010377
:1045E000A36204E0A36A43F01003A362012070BD3C
:1045F00001207047FDF7E1FFFE0E1FFF90F8243009
:10460000012B13D010B50446012380F82430FFF7A6
:1046100045FF38B9A36A23F4885323F0010343F01C
:104620000103A362002384F8243010BD02207047E8
:1046300098B108B50346D0F8B40210B10020C3F811
:10464000B40209B1C3F8B012012183F89C121A70A8
:104650001846FDF7C5FC002008BD0220704719B1BF
:10466000C0F8B412002070470220704708B5FDF76B
:10467000F9FC002008BD08B5D0F8B4322BB11B6896
:10468000984700B908BD0220FCE70220FAE708B508
:10469000D0F8B4325B689847002008BD38B50446AE
:1046A00000F52A75284600F035F90123C4F8943244
:1046B000B4F8AE32C4F8983294F8A81201F01F038F
:1046C000012B0ED0022B11D02BB101F0800120461E
:1046D000FDF7E3FC03E02946204600F0C9FA00207C
:1046E00038BD2946204600F0F7FAF8E7294620466B
:1046F00000F022FBF3E738B504460D4691BB1346A4
:10470000D0F89422032A03D0052A24D0084633E0A7
:10471000D0F86011D0F8642191420DD9891AC0F8FF
:1047200060118A4206D98AB21946204600F036FC4A
:10473000284621E092B2F7E7D0F8B4321B691BB1EA
:1047400090F89C22032A04D0204600F02FFC284633
:1047500012E09847F8E70021C0F89412FDF79DFC9D
:10476000284609E0D0F8B4329B6933B190F89C2216
:10477000032A04D19847002038BD0220FCE702201C
:10478000FAE738B504460D46002953D11346D0F850
:104790009422022A0CD0042A00D01AB98021204683
:1047A000FDF77BFC94F8A032012B3ED0284638BDA3
:1047B000016A426A91421BD8C169B1FBF2F302FB64
:1047C00013132BB98A4203D8D0F8983299421CD3DC
:1047D000D4F8B432DB681BB194F89C22032A21D0B0
:1047E00080212046FDF759FC204600F0EAFBD9E77E
:1047F0008A1A026292B2194600F0B9FB00231A46E7
:1048000019462046FDF780FCCCE70022114600F057
:10481000AEFB0021C4F898120B460A462046FDF76D
:1048200073FCBFE720469847DAE7002384F8A032FC
:104830002846BCE7D0F8B4325B6933B190F89C22CB
:10484000032A04D198470020B1E70220AFE70220F5
:10485000ADE770B50446402300221146FDF70AFC7F
:104860000125C4F858514026C4F86461334600223B
:1048700080212046FDF7FEFBA561666284F89C520C
:104880000023C4F894326360C4F8A432D4F8B83278
:104890002BB1D4F8B4325B68002120469847002041
:1048A00070BD01740020704790F89C3280F89D32F2
:1048B000042380F89C320020704790F89C32042B2F
:1048C00001D00020704790F89D3280F89C32F8E7C4
:1048D00008B590F89C32032B01D0002008BDD0F819
:1048E000B432DB69002BF8D09847F6E70346002086
:1048F00002E00130C0B201331A78002AF9D17047C2
:1049000008B54B88012B00D008BDC0F8A43200F0D8
:104910004DFBF9E70B7803704B7843708B78CA78BE
:1049200003EB022343800B794A7903EB0223838054
:104930008B79CA7903EB0223C380704710B5044614
:104940008021FDF7AAFB00212046FDF7A6FB10BD44
:1049500030B583B005460C460023ADF806304A88D2
:10496000130A013B062B00F2A480DFE803F00418D1
:104970002CA2A2869300D0F8B0321B680DF106017C
:10498000007C9847BDF806201AB1E388002B40F060
:104990009480E388002B00F09A8003B030BD037C44
:1049A00043B9D0F8B4329B6A0DF106009847022350
:1049B0004370E7E7D0F8B432DB6A0DF106009847A0
:1049C00002234370DEE7D2B2052A52D8DFE802F0B4
:1049D00003101D2A3744D0F8B0325B6823B10DF1C3
:1049E0000601007C9847CDE72146FFF7A7FFD4E7F3
:1049F000D0F8B0329B6823B10DF10601007C9847D6
:104A0000C0E72146FFF79AFFC7E7D0F8B032DB686E
:104A100023B10DF10601007C9847B3E72146FFF76B
:104A20008DFFBAE7D0F8B0321B6923B10DF1060152
:104A3000007C9847A6E72146FFF780FFADE7D0F856
:104A4000B0325B6923B10DF10601007C984799E70C
:104A50002146FFF773FFA0E7D0F8B0329B6923B17E
:104A60000DF10601007C98478CE72146FFF766FFB1
:104A700093E72146FFF762FF8FE7037C33B9D0F855
:104A8000B4325B6B0DF1060098477BE72146FFF7D8
:104A900055FF82E7037C43B9D0F8B4321B6B0DF1AC
:104AA00006009847072343706CE72146FFF746FF4F
:104AB00073E72146FFF742FF6FE79A4228BF1A4685
:104AC000ADF806200146284600F044FA61E7284682
:104AD00000F06CFA61E738B504468B88F3B9CB88EF
:104AE000E3B94B887F2B19D803F07F0590F89C32EF
:104AF000032B0CD080F89E522946FDF7F5FA20468C
:104B000000F054FA35B1022384F89C3209E0FFF733
:104B100015FF06E0012384F89C3202E02046FFF7EF
:104B20000DFF38BD38B504460D468978284B1970FD
:104B300001290ED890F89C32022B0ED0032B21D0E5
:104B40002946FFF7FBFE224B19782046FFF79FFD11
:104B500002E02946FFF7F2FE38BD81B14160032330
:104B600080F89C32FFF787FD022803D0204600F032
:104B70001DFAF1E729462046FFF7E0FEECE700F0DA
:104B800015FAE9E789B1436899421DD0D9B2FFF718
:104B90007EFD0F4B197861602046FFF76CFD0228FF
:104BA0000DD0204600F002FAD6E7022380F89C32AE
:104BB0004160FFF76CFD204600F0F8F9CCE729468C
:104BC0002046FFF7BBFEC7E700F0F0F9C4E700BFDF
:104BD000D013002008B5CB88012B0AD190F89C3265
:104BE000022B09D9032B09D10122011D00F0B2F9D2
:104BF00001E0FFF7A3FE08BD5BB213B9FFF79EFE0D
:104C0000F9E70146002341F8083F012200F0A2F92C
:104C1000F1E708B590F89C32013B022B12D8CB8803
:104C2000022B0CD10123C360D0F8A4320BB10323B3
:104C3000C360022200F10C0100F08CF908BDFFF7FF
:104C40007DFEFBE7FFF77AFEF8E708B590F89C32A7
:104C5000013B022B09D84B88012B00D008BD002353
:104C6000C0F8A43200F0A2F9F8E7FFF767FEF5E715
:104C700008B50B7803F06003202B05D0402B03D040
:104C800043B1FFF75BFE03E0D0F8B4329B6898476E
:104C9000002008BD4B78092B1BD8DFE803F0111763
:104CA0001A141A08051A0E0BFFF752FEF0E7FFF769
:104CB00012FFEDE7FFF736FFEAE7FFF78BFFE7E7C5
:104CC000FFF7A7FFE4E7FFF71BFEE1E7FFF7BDFFF4
:104CD000DEE7FFF733FEDBE738B505460C460B7819
:104CE00003F06003202B06D0402B04D01BB1FFF74C
:104CF00025FE002038BD95F89C32013B022B16D8CA
:104D00002379012B0ED8D5F8B4329B68214628466A
:104D10009847E388002BECD10028EAD1284600F020
:104D200045F9E6E721462846FFF708FEE1E7214678
:104D30002846FFF703FEDCE770B505468B880C7844
:104D400004F06004202C07D0DAB2402C04D05CB10F
:104D5000FFF7F4FD002405E0D5F8B4329B6828463F
:104D600098470024204670BD202C09D04E78012E93
:104D700033D0032E0AD0002E55D0FFF7DFFDF1E728
:104D8000D0F8B4329B6898470446EBE790F89C3221
:104D9000022B04D0032B11D0FFF7D0FDE2E70AB1BC
:104DA000802A03D12846FFF7C9FDDBE71146FDF74E
:104DB00074F980212846FDF770F9D3E74B8823B9B1
:104DC0001AB1802A01D0CB881BB1284600F0EEF83A
:104DD000C8E71146FDF761F9F7E790F89C32022B1E
:104DE00004D0032B11D0FFF7A9FDBBE70AB1802A3D
:104DF00003D12846FFF7A2FDB4E71146FDF74DF9B0
:104E000080212846FDF749F9ACE74B88002BA9D152
:104E100012F07F0F03D1284600F0C8F8A2E7114630
:104E2000FDF743F9F7E790F89C02022806D0032823
:104E300029D02846FFF782FD344693E70AB1802A3D
:104E400013D113F0800F15D102F07F0202EB820222
:104E5000910001F5A8712944043100230B6002225E
:104E6000284600F077F834467CE72846FFF766FDD1
:104E7000344677E702F07F0202EB820291001031A4
:104E800029440431E9E75BB2002B1FDB02F00F007D
:104E900000EB800005EB8000D0F8580120B3002B18
:104EA00027DB02F07F0303EB83039C0004F5A87467
:104EB0002C4404340AB1802A24D100232360022226
:104EC0002146284600F046F834464BE702F00F0032
:104ED00000EB800005EB800080690028DFD12846C8
:104EE000FFF72CFD34463DE72846FFF727FD344603
:104EF00038E702F07F0303EB83039C0010342C445B
:104F00000434D7E711462846FDF7D7F810B101233E
:104F10002360D4E700232360D1E7D0B170B50D46FC
:104F200016460446FFF7E2FC431C5B009BB233804D
:104F30002B7003236B70022307E001345A1CD2B29A
:104F4000E8540233DBB20021A95420780028F4D1C0
:104F500070BD704708B513460222C0F89422C361A1
:104F600003620A460021FDF7C7F8002008BD08B516
:104F700013460A460021FDF7BFF8002008BD08B51A
:104F800013460322C0F89422C0F85C31C0F86031A7
:104F90000A460021FDF7B8F8002008BD08B5134601
:104FA0000A460021FDF7B0F8002008BD08B504232B
:104FB000C0F8943200231A461946FDF79DF80020E8
:104FC00008BD08B50523C0F8943200231A461946D7
:104FD000FDF79AF8002008BD10B4074C8446BCE8E1
:104FE0000F000FC4BCE80F000FC49CE80F0084E85A
:104FF0000F0010BC704700BFE413002000220FE038
:1050000009484FEA021C00EB0213012100F80C10C2
:10501000597000215960002018725872D96001320D
:10502000132AEDDD704700BF141400208446034BA3
:105030000FCB8CE80F006046704700BFD4130020F0
:10504000F8B5002538E0304C2046FFF7B3F964216D
:105050002046FFF703F82046FFF7C2F887B2204644
:10506000FFF7CCFA3846FBF74FFDFBF7DDF920A33D
:10507000D3E90023FBF730FAFBF740FC234C04EBA9
:1050800005146060FBF7D0F902460B461AA1D1E97E
:105090000001FBF74BFB1AA3D3E90023FBF764F8ED
:1050A000FBF72CFC0146E0603046FBF77DFC064632
:1050B0000520FCF75BF80135132DC4DD144930469B
:1050C000FBF72EFE0446134DE860FBF7C5FEC0B2A9
:1050D0002872FBF71DFD01462046FBF763FC0E49D5
:1050E000FBF76AFDFBF7B8FE6872F8BDAFF300800E
:1050F0006666666666664A3F4260E5D0228B40403F
:10510000B0726891EDFC1E40E413002014140020DE
:105110000000A041D413002000007A4410B5D0F85C
:10512000B842D0F8BC325BB194F80002FF2807D037
:105130009B6894F8012221469847FF2384F80032A7
:10514000002010BD4323038000487047A4000020C6
:105150004323038000487047E80000204323038076
:1051600000487047380100200A2303800048704738
:105170002C01002038B50446D0F8B852FCF7CCFF1B
:10518000C5F80C02D4F8B8324BB1D4F8BC32DB68A5
:1051900005F50371D5F804029847002038BD0220B8
:1051A000FCE710B5D0F8B822D0F8C042F2B101EB5C
:1051B000810300EB8303DB694BB101EB810C04EB52
:1051C000CC04A46BB3FBF4FC04FB1C3323B100231D
:1051D000C2F81432002010BD01EB810300EB830301
:1051E0000022DA611346FCF787FFF3E70220F2E7BB
:1051F000F0B583B006460C46D0F8B87200238DF89F
:105200000730ADF804300B7813F0600527D0202D5F
:1052100053D1CA88DAB113F0800F0CD0D0F8BC3269
:105220009B68394660789847E28839463046FFF7F0
:1052300091FE002544E04B7887F800328B7987F89F
:105240000132CA883946FFF79AFE002538E0D0F8C7
:10525000BC329B68002248789847002530E04F78A0
:105260000A2F14D00B2F20D01FB1FFF767FB0225A8
:1052700026E090F89C32032B03D0FFF75FFB02255A
:105280001EE0022201A9FFF765FE3D4618E090F8F6
:105290009C32032B03D0FFF751FB022510E00122C3
:1052A0000DF10701FFF756FE0AE090F89C32032B40
:1052B00006D0FFF743FB022502E0FFF73FFB022584
:1052C000284603B0F0BD38B504468121FCF7DDFE69
:1052D0000025E56201212046FCF7D7FEC4F86C5199
:1052E00082212046FCF7D1FE2564D4F8B8324BB1B8
:1052F000D4F8BC325B689847D4F8B802FCF716FFC4
:10530000C4F8B852002038BD70B50446037CABBB6E
:105310004FF4007302228121FCF7ACFE0125E56207
:105320004FF40073022229462046FCF7A3FEC4F87E
:105330006C510823032282212046FCF79BFE0123A7
:1053400023644FF40770FCF7EDFE0546C4F8B8027D
:1053500068B3D4F8BC321B6898470023C5F81432F0
:10536000C5F81832267CCEB94FF40073D5F8042264
:1053700001212046FCF7C8FE304670BD40230222C2
:105380008121FCF777FE0125E562402302222946B0
:105390002046FCF76FFEC4F86C51CAE74023D5F8ED
:1053A000042201212046FCF7AFFE0026E4E7012697
:1053B000E2E719B1C0F8BC12002070470220704724
:1053C000D0F8B832C3F80812C3F810220020704792
:1053D000D0F8B832C3F8041200207047D0F8B822D1
:1053E000A2B108B5D2F814320BB1012008BD0123D7
:1053F000C2F81432D2F810320363B2F81032D2F885
:1054000008228121FCF778FE0020EFE70220704798
:10541000D0F8B82292B108B5037C43B94FF40073B9
:10542000D2F804220121FCF76FFE002008BD4023C2
:10543000D2F804220121FCF767FEF6E7022070474C
:105440000C480D490D4A002302E0D458C4500433DF
:10545000C4188C42F9D30A4A0A4C002301E01360B5
:105460000432A242FBD3FCF741FC00F00FF8FBF73B
:10547000A3FD704700000020E0010020CC5E000882
:10548000E001002068150020FEE7000070B500264E
:105490000C4D0D4C641BA410A64209D100F0AAFCCF
:1054A00000260A4D0A4C641BA410A64205D170BD0B
:1054B00055F8043B98470136EEE755F8043B98470A
:1054C0000136F2E7C45E0008C45E0008C45E00084E
:1054D000C85E000803460244934200D1704703F8B7
:1054E000011BF9E70EB46FF0004100B59CB01DAB95
:1054F00002900690079104910848094953F8042B3B
:105500000591006802A9019300F068F80022029B4F
:105510001A701CB05DF804EB03B070477C010020EA
:105520000802FFFF2DE9F0478E6882469E420C4636
:1055300090461F4638D88A8912F4906F32D0256879
:1055400009690133A5EB010965694B4405EB450584
:1055500005EBD5756D109D4238BF1D46530531D5FD
:10556000294600F06FFB064650B90C234FF0FF3080
:10557000CAF80030A38943F04003A381BDE8F08757
:105580004A46216900F0CEFAA38923F4906343F0E0
:105590008003A38126614E4426603E466561A5EBEB
:1055A0000905A560BE4200D93E4632464146206804
:1055B00000F0C6FAA36800209B1BA3602368334455
:1055C0002360DBE72A4600F0B1FB06460028E1D164
:1055D0005046216900F0CEFAC7E700002DE9F04FF0
:1055E00098468B8907461B060D4614469DB00ED57E
:1055F0000B6963B9402100F025FB2860286120B9C0
:105600000C233B604FF0FF30D1E040236B6100235F
:10561000099320238DF8293030234FF00109CDF86C
:105620000C80DFF8A4818DF82A3023469A4613F8BF
:10563000012B0AB1252AF9D1BAEB040B0BD05B463A
:10564000224629463846FFF76DFF013000F0AA8058
:10565000099A5A4409929AF80030002B00F0A2806F
:1056600000234FF0FF32CDE905230AF1010A04932C
:1056700007938DF853301A935446052214F8011BF2
:10568000514800F041FA049AD8B9D00644BF20230B
:105690008DF85330110744BF2B238DF853309AF8FF
:1056A00000302A2B15D0544600204FF00A0C079AE0
:1056B000214611F8013B303B092B4ED9B0B107927E
:1056C00014E0A0EB080309FA03F31343A246049382
:1056D000D2E7039B191D1B680391002BBBBF5B42E4
:1056E00042F0020207930793B8BF049223782E2B4F
:1056F0000CD163782A2B35D1039B02341A1D1B6809
:105700000392002BB8BF4FF0FF330593DFF8BCA026
:1057100003225046217800F0F7F940B14023A0EB76
:105720000A0003FA00F0049B01340343049314F8C5
:10573000011B062226488DF8281000F0E5F9002804
:1057400038D0244B1BBB039B073323F007030833DC
:105750000393099B3344099367E70C4601200CFB34
:105760000232A5E700234FF00A0C194601340593D5
:10577000204610F8012B303A092A03D9002BC5D056
:105780000591C3E7044601230CFB0121F0E703ABBD
:1057900000932A463846104B04A9AFF30080421C00
:1057A0000646D6D1AB895B063FF52CAF09981DB0F4
:1057B000BDE8F08F03AB00932A463846064B04A998
:1057C00000F07CF8EBE700BF8E5E0008945E0008F6
:1057D000985E000800000000255500082DE9F047FC
:1057E000164699468A680B6907469342B8BF134626
:1057F000336091F843200C46DDF820800AB1013374
:1058000033602368990642BF3368023333602568EA
:1058100015F0060506D104F1190AE36832689B1AEF
:10582000AB4228DC94F84320131E226818BF0123E2
:1058300092062DD44946384604F14302C047013050
:1058400020D02368E56803F00603042B18BF002569
:1058500032684FF00006A36808BFAD1A226908BF7E
:1058600025EAE5759342C4BF9B1AED181A34B54278
:105870001AD1002008E00123524649463846C04765
:10588000013003D14FF0FF30BDE8F0870135C4E7A8
:105890003020E11881F843005A1C94F84510224446
:1058A000023382F84310C5E70123224649463846B1
:1058B000C0470130E6D00136D9E700002DE9FF47A7
:1058C0000F7E9146782F80460C469A460C9D01F13A
:1058D000430207D8622F0AD8002F00F0D980582F32
:1058E00000F0A48004F1420584F842703AE0A7F188
:1058F0006303152BF6D801A151F823F05559000880
:1059000069590008E5580008E5580008E5580008FE
:10591000E558000869590008E5580008E5580008EE
:10592000E5580008E5580008775A0008995900081A
:10593000595A0008E5580008E5580008995A000827
:10594000E558000899590008E5580008E55800088E
:10595000615A00082B681A1D1B682A6004F1420571
:1059600084F842300123A4E020682968060601F18A
:1059700004030AD50E682B60002E03DA2D2376422D
:1059800084F843300A235E4819E00E6810F0400F97
:105990002B6018BF36B2EFE72B682068191D29600D
:1059A000010601D51E6802E04606FBD51E886F2F52
:1059B0000CBF08230A235248002184F8431065686D
:1059C000002DA8BF2168A560A4BF21F004012160BB
:1059D0000EB9002D4DD01546B6FBF3F103FB116750
:1059E000C75D05F8017D3746BB420E46F4D9082B4A
:1059F0000BD12368DE0708D5236961689942DEBFB1
:105A0000302305F8013C05F1FF35521B22614B465E
:105A100021464046CDF800A003AAFFF7DFFE013083
:105A20004CD14FF0FF3004B0BDE8F087344881F826
:105A300045702968236851F8046B29601D0614D548
:105A4000DF0744BF43F0200323601EB9236823F01F
:105A5000200323601023AFE7236843F02003236073
:105A60007823284884F84530E3E7590648BFB6B2A2
:105A7000E6E71546BBE72B682668181D61692860B4
:105A800035061B6801D5196002E07006FBD5198048
:105A9000002315462361BAE72B6800211A1D2A60EE
:105AA0001D686268284600F02FF808B1401B60604E
:105AB00063682361002384F84330A8E72A464946F7
:105AC00040462369D0470130ABD023689B0713D4ED
:105AD000E068039B9842B8BF1846A4E7012332460A
